:020000040000FA
:10000000E1EF01F0F76A140FF66E000EF722090017
:10001000F55012004269656E76656E752064616EFA
:1000200073206C612073696D756C6174696F6E20EB
:1000300070726F657475730A0000F76A4A0FF66E86
:10004000000EF7220900F550120064697374616EA6
:1000500063652074726F7020706574697465000048
:100060008E0E006E16C001F015C002F0036A015238
:1000700009E102C001F0026A080E005E015202E1CD
:10008000006A08D0D89001BE04D0023601360006BE
:10009000F9D7019E06EF01F01550D8B471D0006E6B
:1000A0001950D8B46DD0002604E3810E002668E212
:1000B00004D07F0E005E64E363E016C01DF01A50AA
:1000C0001D1A168E1A8E18501C02F4CF1FF01750EE
:1000D0001B02F4CF03F0F3CF1EF01C02F3501F26D7
:1000E000F4501E22000E032218501B02F3501F264C
:1000F000F4501E22000E026A0322022216501C0235
:10010000F3501E26F4500322000E022216501B024A
:10011000F3500326F4500222000E016A0122185007
:100120001A02F3501E26F4500322000E022201226E
:1001300017501A02F3500326F4500222000E012237
:1001400016501A02F3500226F4500122002A01BE72
:1001500005D01E360336023601360006000E1EAEEE
:100160000AD0032A02220122015005E1025003E1D4
:10017000035001E1002A1DBE018E1DAE019E04D078
:10018000006A016A026A036A1FEF01F01550B6089F
:10019000156E036A16C019F0168ED89016321732F3
:1001A00018320332023201320032152EF6D719AE60
:1001B0000BD0001E011E021E031E002AD8B4012A05
:1001C000D8B4022AD8B4032A28EF01F00D6A0E6AC7
:1001D0000F6A106A116A126A136A146A939E8A8EF1
:1001E000100E006E002EFED70000939E8A9E93860E
:1001F00081A6FDD7CF6ACE6A938681B6FDD7CE5051
:10020000CFCF03F0156ECFCF16F02AD703C010F072
:1002100002C00FF001C00EF000C00DF010C018F0C9
:100220000FC017F00EC016F00DC015F09F0E1C6E1B
:10023000710E1B6E610E1A6E760E196E2DD703C0ED
:1002400018F002C017F001C016F000C015F09ED7DC
:1002500003C014F002C013F001C012F000C011F08E
:1002600011C000F012C001F013C002F014C003F07E
:10027000000C006A016A026A036A216A226A236A20
:10028000246A20501F101E101D102CE0200E256E19
:10029000D89019361A361B361C36213622362336AC
:1002A00024362050245C08E11F50235C05E11E50D9
:1002B000225C02E11D50215C0FE31D50215E1E50A7
:1002C000D8A01E3C225E1F50D8A01F3C235E2050A9
:1002D000D8A0203C245ED880003601360236033692
:1002E000252ED6D7EA6A210EE96E000CE950116E70
:1002F0003B0E186E9A0E176ECA0E166E156A0A0E0F
:10030000136E10C01CF00FC01BF00EC01AF00DC011
:1003100019F018C020F017C01FF016C01EF015C04D
:100320001DF0A7DF0150EFCF0DF0ECCF0EF0ECCFBA
:100330000FF0ECCF10F000520FE11350010A0CE067
:1003400011500BE00F0B135C01E00EE211BE0CD05C
:1003500011BC03D0200E02D0116A300E00260050CE
:1003600004009EA8FDD7AD6E18C01CF017C01BF08E
:1003700016C01AF015C019F0206A1F6A1E6A0A0E0C
:100380001D6E77DF03C018F002C017F001C016F031
:1003900000C015F0132EB5D7000CEA6A0E0EE96EF8
:1003A000EF500DE0060E016E006A002EFED7012E02
:1003B000FBD77B0E006E002EFED7EF2EF3D74BEF50
:1003C00002F0F86AD09EEA6AE96A810EAF6EA60E64
:1003D000AC6E900EAB6EC180C182C184C196070E17
:1003E000B46E056A066A076A086A0D6A0D500ADE6D
:1003F0000D2A006E04009EA8FDD7AD6E240E0D5C84
:10040000F5E1C20ED56E850ECD6EC00EF212D26A27
:100410009D8AF2120C6A0B6A0A6A096AD7DE03C067
:100420000CF002C00BF001C00AF000C009F00C5043
:10043000085C28E30BE10B50075C24E307E10A505A
:10044000065C20E303E10550095C1CE293908A807E
:1004500093928A920D6A0D50F0DD0D2A006E040011
:100460009EA8FDD7AD6E140E0D5CF5E1410EE96E50
:100470000CC010F00BC00FF00AC00EF009C00DF058
:1004800035DF38D093928A8293908A90040E0D6E55
:10049000FA0E0E6E82D70D2EFBD798DE03C00CF03D
:1004A00002C00BF001C00AF000C009F0410EE96E75
:1004B0000CC010F00BC00FF00AC00EF009C00DF018
:1004C00015DF0D0E04009EA8FDD7AD6E0A0E0400C8
:1004D0009EA8FDD7AD6E08500C5C0CE3D7E1075029
:1004E0000B5C08E3D3E106500A5C04E3CFE109505A
:0804F000055CCCE393D7030087
:020000040030CA
:0E00000000270D0E000081000FC00FE00F4022
:00000001FF
;PIC18F458
